{
  "contractName": "Election",
  "abi": [
    {
      "inputs": [],
      "payable": false,
      "stateMutability": "nonpayable",
      "type": "constructor"
    },
    {
      "constant": true,
      "inputs": [
        {
          "internalType": "uint256",
          "name": "",
          "type": "uint256"
        }
      ],
      "name": "candidates",
      "outputs": [
        {
          "internalType": "uint256",
          "name": "candidate_id",
          "type": "uint256"
        },
        {
          "internalType": "string",
          "name": "first_name",
          "type": "string"
        },
        {
          "internalType": "string",
          "name": "last_name",
          "type": "string"
        },
        {
          "internalType": "string",
          "name": "ssn",
          "type": "string"
        },
        {
          "internalType": "uint256",
          "name": "voteCount",
          "type": "uint256"
        },
        {
          "internalType": "string",
          "name": "username",
          "type": "string"
        },
        {
          "internalType": "string",
          "name": "password",
          "type": "string"
        }
      ],
      "payable": false,
      "stateMutability": "view",
      "type": "function"
    },
    {
      "constant": true,
      "inputs": [],
      "name": "count",
      "outputs": [
        {
          "internalType": "uint256",
          "name": "",
          "type": "uint256"
        }
      ],
      "payable": false,
      "stateMutability": "view",
      "type": "function"
    },
    {
      "constant": false,
      "inputs": [
        {
          "internalType": "string",
          "name": "_first_name",
          "type": "string"
        },
        {
          "internalType": "string",
          "name": "_last_name",
          "type": "string"
        },
        {
          "internalType": "string",
          "name": "_ssn",
          "type": "string"
        },
        {
          "internalType": "string",
          "name": "_username",
          "type": "string"
        },
        {
          "internalType": "string",
          "name": "_password",
          "type": "string"
        }
      ],
      "name": "addCandidate",
      "outputs": [],
      "payable": false,
      "stateMutability": "nonpayable",
      "type": "function"
    },
    {
      "constant": false,
      "inputs": [
        {
          "internalType": "uint256",
          "name": "_candidateId",
          "type": "uint256"
        }
      ],
      "name": "vote",
      "outputs": [],
      "payable": false,
      "stateMutability": "nonpayable",
      "type": "function"
    },
    {
      "constant": true,
      "inputs": [],
      "name": "getCandidates",
      "outputs": [
        {
          "components": [
            {
              "internalType": "uint256",
              "name": "candidate_id",
              "type": "uint256"
            },
            {
              "internalType": "string",
              "name": "first_name",
              "type": "string"
            },
            {
              "internalType": "string",
              "name": "last_name",
              "type": "string"
            },
            {
              "internalType": "string",
              "name": "ssn",
              "type": "string"
            },
            {
              "internalType": "uint256",
              "name": "voteCount",
              "type": "uint256"
            },
            {
              "internalType": "string",
              "name": "username",
              "type": "string"
            },
            {
              "internalType": "string",
              "name": "password",
              "type": "string"
            }
          ],
          "internalType": "struct Election.Candidate[]",
          "name": "",
          "type": "tuple[]"
        }
      ],
      "payable": false,
      "stateMutability": "view",
      "type": "function"
    },
    {
      "constant": true,
      "inputs": [],
      "name": "getElectionResult",
      "outputs": [
        {
          "components": [
            {
              "internalType": "uint256",
              "name": "candidate_id",
              "type": "uint256"
            },
            {
              "internalType": "string",
              "name": "first_name",
              "type": "string"
            },
            {
              "internalType": "string",
              "name": "last_name",
              "type": "string"
            },
            {
              "internalType": "uint256",
              "name": "voteCount",
              "type": "uint256"
            }
          ],
          "internalType": "struct Election.ElectionResult[]",
          "name": "",
          "type": "tuple[]"
        }
      ],
      "payable": false,
      "stateMutability": "view",
      "type": "function"
    }
  ],
  "bytecode": "0x60806040523480156200001157600080fd5b506200010a6040518060400160405280600581526020017f54756c73690000000000000000000000000000000000000000000000000000008152506040518060400160405280600781526020017f4761626261726400000000000000000000000000000000000000000000000000815250604051806020016040528060008152506040518060400160405280600581526020017f74756c73690000000000000000000000000000000000000000000000000000008152506040518060400160405280600981526020017f74756c73694031323300000000000000000000000000000000000000000000008152506200030060201b60201c565b620002026040518060400160405280600681526020017f446f6e616c6400000000000000000000000000000000000000000000000000008152506040518060400160405280600581526020017f5472756d70000000000000000000000000000000000000000000000000000000815250604051806020016040528060008152506040518060400160405280600681526020017f646f6e616c6400000000000000000000000000000000000000000000000000008152506040518060400160405280600981526020017f7472756d704031323300000000000000000000000000000000000000000000008152506200030060201b60201c565b620002fa6040518060400160405280600781526020017f48696c6c617279000000000000000000000000000000000000000000000000008152506040518060400160405280600781526020017f436c696e746f6e00000000000000000000000000000000000000000000000000815250604051806020016040528060008152506040518060400160405280600781526020017f68696c6c617279000000000000000000000000000000000000000000000000008152506040518060400160405280600b81526020017f636c696e746f6e403132330000000000000000000000000000000000000000008152506200030060201b60201c565b6200050f565b6200030a62000423565b6040518060e001604052806001548152602001878152602001868152602001858152602001600081526020018481526020018381525090508060008060015481526020019081526020016000206000820151816000015560208201518160010190805190602001906200037f92919062000460565b5060408201518160020190805190602001906200039e92919062000460565b506060820151816003019080519060200190620003bd92919062000460565b506080820151816004015560a0820151816005019080519060200190620003e692919062000460565b5060c08201518160060190805190602001906200040592919062000460565b50905050600160008154809291906001019190505550505050505050565b6040518060e00160405280600081526020016060815260200160608152602001606081526020016000815260200160608152602001606081525090565b828054600181600116156101000203166002900490600052602060002090601f016020900481019282601f10620004a357805160ff1916838001178555620004d4565b82800160010185558215620004d4579182015b82811115620004d3578251825591602001919060010190620004b6565b5b509050620004e39190620004e7565b5090565b6200050c91905b8082111562000508576000816000905550600101620004ee565b5090565b90565b6113d6806200051f6000396000f3fe608060405234801561001057600080fd5b50600436106100625760003560e01c80630121b93f1461006757806306661abd1461008357806306a49fce146100a15780633477ee2e146100bf578063945ddfb9146100f5578063ca3eb44314610111575b600080fd5b610081600480360361007c9190810190610e49565b61012f565b005b61008b610157565b604051610098919061117a565b60405180910390f35b6100a961015d565b6040516100b69190611136565b60405180910390f35b6100d960048036036100d49190810190610e49565b610536565b6040516100ec9796959493929190611195565b60405180910390f35b61010f600480360361010a9190810190610d5a565b610870565b005b610119610987565b6040516101269190611158565b60405180910390f35b6000808281526020019081526020016000206004016000815480929190600101919050555050565b60015481565b60608060015460405190808252806020026020018201604052801561019c57816020015b610189610baa565b8152602001906001900390816101815790505b50905060008090505b60015481101561052e576000808281526020019081526020016000206040518060e001604052908160008201548152602001600182018054600181600116156101000203166002900480601f01602080910402602001604051908101604052809291908181526020018280546001816001161561010002031660029004801561026f5780601f106102445761010080835404028352916020019161026f565b820191906000526020600020905b81548152906001019060200180831161025257829003601f168201915b50505050508152602001600282018054600181600116156101000203166002900480601f0160208091040260200160405190810160405280929190818152602001828054600181600116156101000203166002900480156103115780601f106102e657610100808354040283529160200191610311565b820191906000526020600020905b8154815290600101906020018083116102f457829003601f168201915b50505050508152602001600382018054600181600116156101000203166002900480601f0160208091040260200160405190810160405280929190818152602001828054600181600116156101000203166002900480156103b35780601f10610388576101008083540402835291602001916103b3565b820191906000526020600020905b81548152906001019060200180831161039657829003601f168201915b5050505050815260200160048201548152602001600582018054600181600116156101000203166002900480601f01602080910402602001604051908101604052809291908181526020018280546001816001161561010002031660029004801561045f5780601f106104345761010080835404028352916020019161045f565b820191906000526020600020905b81548152906001019060200180831161044257829003601f168201915b50505050508152602001600682018054600181600116156101000203166002900480601f0160208091040260200160405190810160405280929190818152602001828054600181600116156101000203166002900480156105015780601f106104d657610100808354040283529160200191610501565b820191906000526020600020905b8154815290600101906020018083116104e457829003601f168201915b50505050508152505082828151811061051657fe5b602002602001018190525080806001019150506101a5565b508091505090565b6000602052806000526040600020600091509050806000015490806001018054600181600116156101000203166002900480601f0160208091040260200160405190810160405280929190818152602001828054600181600116156101000203166002900480156105e85780601f106105bd576101008083540402835291602001916105e8565b820191906000526020600020905b8154815290600101906020018083116105cb57829003601f168201915b505050505090806002018054600181600116156101000203166002900480601f0160208091040260200160405190810160405280929190818152602001828054600181600116156101000203166002900480156106865780601f1061065b57610100808354040283529160200191610686565b820191906000526020600020905b81548152906001019060200180831161066957829003601f168201915b505050505090806003018054600181600116156101000203166002900480601f0160208091040260200160405190810160405280929190818152602001828054600181600116156101000203166002900480156107245780601f106106f957610100808354040283529160200191610724565b820191906000526020600020905b81548152906001019060200180831161070757829003601f168201915b505050505090806004015490806005018054600181600116156101000203166002900480601f0160208091040260200160405190810160405280929190818152602001828054600181600116156101000203166002900480156107c85780601f1061079d576101008083540402835291602001916107c8565b820191906000526020600020905b8154815290600101906020018083116107ab57829003601f168201915b505050505090806006018054600181600116156101000203166002900480601f0160208091040260200160405190810160405280929190818152602001828054600181600116156101000203166002900480156108665780601f1061083b57610100808354040283529160200191610866565b820191906000526020600020905b81548152906001019060200180831161084957829003601f168201915b5050505050905087565b610878610be7565b6040518060e001604052806001548152602001878152602001868152602001858152602001600081526020018481526020018381525090508060008060015481526020019081526020016000206000820151816000015560208201518160010190805190602001906108eb929190610c24565b506040820151816002019080519060200190610908929190610c24565b506060820151816003019080519060200190610925929190610c24565b506080820151816004015560a082015181600501908051906020019061094c929190610c24565b5060c0820151816006019080519060200190610969929190610c24565b50905050600160008154809291906001019190505550505050505050565b6060806001546040519080825280602002602001820160405280156109c657816020015b6109b3610ca4565b8152602001906001900390816109ab5790505b50905060008090505b600154811015610ba25760405180608001604052806000808481526020019081526020016000206000015481526020016000808481526020019081526020016000206001018054600181600116156101000203166002900480601f016020809104026020016040519081016040528092919081815260200182805460018160011615610100020316600290048015610aa85780601f10610a7d57610100808354040283529160200191610aa8565b820191906000526020600020905b815481529060010190602001808311610a8b57829003601f168201915b505050505081526020016000808481526020019081526020016000206002018054600181600116156101000203166002900480601f016020809104026020016040519081016040528092919081815260200182805460018160011615610100020316600290048015610b5b5780601f10610b3057610100808354040283529160200191610b5b565b820191906000526020600020905b815481529060010190602001808311610b3e57829003601f168201915b5050505050815260200160008084815260200190815260200160002060040154815250828281518110610b8a57fe5b602002602001018190525080806001019150506109cf565b508091505090565b6040518060e00160405280600081526020016060815260200160608152602001606081526020016000815260200160608152602001606081525090565b6040518060e00160405280600081526020016060815260200160608152602001606081526020016000815260200160608152602001606081525090565b828054600181600116156101000203166002900490600052602060002090601f016020900481019282601f10610c6557805160ff1916838001178555610c93565b82800160010185558215610c93579182015b82811115610c92578251825591602001919060010190610c77565b5b509050610ca09190610ccc565b5090565b6040518060800160405280600081526020016060815260200160608152602001600081525090565b610cee91905b80821115610cea576000816000905550600101610cd2565b5090565b90565b600082601f830112610d0257600080fd5b8135610d15610d1082611254565b611227565b91508082526020830160208301858383011115610d3157600080fd5b610d3c838284611329565b50505092915050565b600081359050610d548161137c565b92915050565b600080600080600060a08688031215610d7257600080fd5b600086013567ffffffffffffffff811115610d8c57600080fd5b610d9888828901610cf1565b955050602086013567ffffffffffffffff811115610db557600080fd5b610dc188828901610cf1565b945050604086013567ffffffffffffffff811115610dde57600080fd5b610dea88828901610cf1565b935050606086013567ffffffffffffffff811115610e0757600080fd5b610e1388828901610cf1565b925050608086013567ffffffffffffffff811115610e3057600080fd5b610e3c88828901610cf1565b9150509295509295909350565b600060208284031215610e5b57600080fd5b6000610e6984828501610d45565b91505092915050565b6000610e7e8383610ff6565b905092915050565b6000610e9283836110ae565b905092915050565b6000610ea5826112a0565b610eaf81856112db565b935083602082028501610ec185611280565b8060005b85811015610efd5784840389528151610ede8582610e72565b9450610ee9836112c1565b925060208a01995050600181019050610ec5565b50829750879550505050505092915050565b6000610f1a826112ab565b610f2481856112ec565b935083602082028501610f3685611290565b8060005b85811015610f725784840389528151610f538582610e86565b9450610f5e836112ce565b925060208a01995050600181019050610f3a565b50829750879550505050505092915050565b6000610f8f826112b6565b610f9981856112fd565b9350610fa9818560208601611338565b610fb28161136b565b840191505092915050565b6000610fc8826112b6565b610fd2818561130e565b9350610fe2818560208601611338565b610feb8161136b565b840191505092915050565b600060e08301600083015161100e6000860182611118565b50602083015184820360208601526110268282610f84565b915050604083015184820360408601526110408282610f84565b9150506060830151848203606086015261105a8282610f84565b915050608083015161106f6080860182611118565b5060a083015184820360a08601526110878282610f84565b91505060c083015184820360c08601526110a18282610f84565b9150508091505092915050565b60006080830160008301516110c66000860182611118565b50602083015184820360208601526110de8282610f84565b915050604083015184820360408601526110f88282610f84565b915050606083015161110d6060860182611118565b508091505092915050565b6111218161131f565b82525050565b6111308161131f565b82525050565b600060208201905081810360008301526111508184610e9a565b905092915050565b600060208201905081810360008301526111728184610f0f565b905092915050565b600060208201905061118f6000830184611127565b92915050565b600060e0820190506111aa600083018a611127565b81810360208301526111bc8189610fbd565b905081810360408301526111d08188610fbd565b905081810360608301526111e48187610fbd565b90506111f36080830186611127565b81810360a08301526112058185610fbd565b905081810360c08301526112198184610fbd565b905098975050505050505050565b6000604051905081810181811067ffffffffffffffff8211171561124a57600080fd5b8060405250919050565b600067ffffffffffffffff82111561126b57600080fd5b601f19601f8301169050602081019050919050565b6000819050602082019050919050565b6000819050602082019050919050565b600081519050919050565b600081519050919050565b600081519050919050565b6000602082019050919050565b6000602082019050919050565b600082825260208201905092915050565b600082825260208201905092915050565b600082825260208201905092915050565b600082825260208201905092915050565b6000819050919050565b82818337600083830152505050565b60005b8381101561135657808201518184015260208101905061133b565b83811115611365576000848401525b50505050565b6000601f19601f8301169050919050565b6113858161131f565b811461139057600080fd5b5056fea365627a7a72315820c35404614e09d8348640f3cef3d8a539206d0ae07052bb1bb0c6bf608c15c5e36c6578706572696d656e74616cf564736f6c63430005100040",
  "source": "pragma solidity >=0.4.22 <0.7.0;\r\npragma experimental ABIEncoderV2;\r\n\r\ncontract Election  {\r\n    struct Candidate {\r\n        uint candidate_id;\r\n        string first_name;\r\n        string last_name;\r\n        string ssn;\r\n        uint voteCount;\r\n        string username;\r\n        string password;\r\n    }\r\n    \r\n    struct ElectionResult  {\r\n        uint candidate_id;\r\n        string first_name;\r\n        string last_name; \r\n        uint voteCount;\r\n    }\r\n\r\n    mapping(uint  => Candidate) public candidates;\r\n    // Store VoteArs Count\r\n    uint public count;\r\n    \r\n    constructor() public {\r\n        addCandidate(\"Tulsi\",\"Gabbard\",\"\",\"tulsi\",\"tulsi@123\");\r\n        addCandidate(\"Donald\",\"Trump\",\"\",\"donald\",\"trump@123\");\r\n        addCandidate(\"Hillary\",\"Clinton\",\"\",\"hillary\",\"clinton@123\");   \r\n    }\r\n    \r\n    function addCandidate(string memory _first_name,string memory _last_name,string memory _ssn,string memory _username,string memory _password) public{\r\n        Candidate memory candidate = Candidate(count,_first_name,_last_name,_ssn,0,_username,_password);\r\n        candidates[count] = candidate;\r\n        count++;\r\n    }\r\n    \r\n    function vote (uint _candidateId) public {\r\n        // update candidate vote Count\r\n        candidates[_candidateId].voteCount++;\r\n\r\n        // trigger voted event\r\n        //emit votedEvent(_candidateId);\r\n    }\r\n\r\n\r\n    function getCandidates() public view returns (Candidate[] memory){\r\n      Candidate[] memory candidateList = new Candidate[](count);\r\n      for (uint i = 0; i < count; i++) {\r\n          candidateList[i] = candidates[i];\r\n      }\r\n      return candidateList;\r\n    }\r\n    \r\n    function getElectionResult() public view returns (ElectionResult[] memory) {\r\n        ElectionResult [] memory result = new ElectionResult[](count);\r\n        for(uint  i =0; i < count; i++){\r\n            result[i] = ElectionResult(candidates[i].candidate_id,candidates[i].first_name,candidates[i].last_name,candidates[i].voteCount);\r\n        }\r\n        return result;\r\n    }\r\n}",
  "sourcePath": "/Users/sachinsharma/final_voting/contracts/Election.sol",
  "compiler": {
    "name": "solc",
    "version": "0.5.16+commit.9c3226ce.Emscripten.clang"
  },
  "schemaVersion": "3.0.23",
  "updatedAt": "2020-03-29T03:34:41.041Z",
  "networkType": "ethereum",
  "devdoc": {
    "methods": {}
  },
  "userdoc": {
    "methods": {}
  }
}