{
  "contractName": "Election",
  "abi": [
    {
      "constant": true,
      "inputs": [],
      "name": "candidatesCount",
      "outputs": [
        {
          "name": "",
          "type": "uint256"
        }
      ],
      "payable": false,
      "stateMutability": "view",
      "type": "function"
    },
    {
      "constant": true,
      "inputs": [
        {
          "name": "",
          "type": "uint256"
        }
      ],
      "name": "candidates",
      "outputs": [
        {
          "name": "id",
          "type": "uint256"
        },
        {
          "name": "name",
          "type": "string"
        },
        {
          "name": "voteCount",
          "type": "uint256"
        }
      ],
      "payable": false,
      "stateMutability": "view",
      "type": "function"
    },
    {
      "constant": true,
      "inputs": [
        {
          "name": "",
          "type": "address"
        }
      ],
      "name": "voters",
      "outputs": [
        {
          "name": "",
          "type": "bool"
        }
      ],
      "payable": false,
      "stateMutability": "view",
      "type": "function"
    },
    {
      "inputs": [],
      "payable": false,
      "stateMutability": "nonpayable",
      "type": "constructor"
    },
    {
      "anonymous": false,
      "inputs": [
        {
          "indexed": true,
          "name": "_candidateId",
          "type": "uint256"
        }
      ],
      "name": "votedEvent",
      "type": "event"
    },
    {
      "constant": false,
      "inputs": [
        {
          "name": "_candidateId",
          "type": "uint256"
        }
      ],
      "name": "vote",
      "outputs": [],
      "payable": false,
      "stateMutability": "nonpayable",
      "type": "function"
    },
    {
      "constant": true,
      "inputs": [],
      "name": "getCandidates",
      "outputs": [
        {
          "components": [
            {
              "name": "id",
              "type": "uint256"
            },
            {
              "name": "name",
              "type": "string"
            },
            {
              "name": "voteCount",
              "type": "uint256"
            }
          ],
          "name": "",
          "type": "tuple[]"
        }
      ],
      "payable": false,
      "stateMutability": "view",
      "type": "function"
    }
  ],
  "bytecode": "0x608060405234801561001057600080fd5b506100556040518060400160405280600d81526020017f54756c73692047616262617264000000000000000000000000000000000000008152506100e260201b60201c565b6100996040518060400160405280600c81526020017f446f6e616c64205472756d7000000000000000000000000000000000000000008152506100e260201b60201c565b6100dd6040518060400160405280600f81526020017f48696c6c61727920436c696e746f6e00000000000000000000000000000000008152506100e260201b60201c565b610203565b60026000815480929190600101919050555060405180606001604052806002548152602001828152602001600081525060016000600254815260200190815260200160002060008201518160000155602082015181600101908051906020019061014d92919061015e565b506040820151816002015590505050565b828054600181600116156101000203166002900490600052602060002090601f016020900481019282601f1061019f57805160ff19168380011785556101cd565b828001600101855582156101cd579182015b828111156101cc5782518255916020019190600101906101b1565b5b5090506101da91906101de565b5090565b61020091905b808211156101fc5760008160009055506001016101e4565b5090565b90565b610819806102126000396000f3fe608060405234801561001057600080fd5b50600436106100575760003560e01c80630121b93f1461005c57806306a49fce146100785780632d35a8a2146100965780633477ee2e146100b4578063a3ec138d146100e6575b600080fd5b6100766004803603610071919081019061048b565b610116565b005b6100806101b0565b60405161008d919061062c565b60405180910390f35b61009e61030e565b6040516100ab9190610669565b60405180910390f35b6100ce60048036036100c9919081019061048b565b610314565b6040516100dd93929190610684565b60405180910390f35b61010060048036036100fb9190810190610462565b6103d6565b60405161010d919061064e565b60405180910390f35b6000803373ffffffffffffffffffffffffffffffffffffffff1673ffffffffffffffffffffffffffffffffffffffff16815260200190815260200160002060009054906101000a900460ff161561016c57600080fd5b60008111801561017e57506002548111155b61018757600080fd5b600160008281526020019081526020016000206002016000815480929190600101919050555050565b6060806002546040519080825280602002602001820160405280156101ef57816020015b6101dc6103f6565b8152602001906001900390816101d45790505b50905060008090505b6002548110156103065761020a610417565b6001600083815260200190815260200160002060405180606001604052908160008201548152602001600182018054600181600116156101000203166002900480601f0160208091040260200160405190810160405280929190818152602001828054600181600116156101000203166002900480156102cb5780601f106102a0576101008083540402835291602001916102cb565b820191906000526020600020905b8154815290600101906020018083116102ae57829003601f168201915b505050505081526020016002820154815250509050808383815181106102ed57fe5b60200260200101819052505080806001019150506101f8565b508091505090565b60025481565b6001602052806000526040600020600091509050806000015490806001018054600181600116156101000203166002900480601f0160208091040260200160405190810160405280929190818152602001828054600181600116156101000203166002900480156103c65780601f1061039b576101008083540402835291602001916103c6565b820191906000526020600020905b8154815290600101906020018083116103a957829003601f168201915b5050505050908060020154905083565b60006020528060005260406000206000915054906101000a900460ff1681565b60405180606001604052806000815260200160608152602001600081525090565b60405180606001604052806000815260200160608152602001600081525090565b600081359050610447816107b1565b92915050565b60008135905061045c816107c8565b92915050565b60006020828403121561047457600080fd5b600061048284828501610438565b91505092915050565b60006020828403121561049d57600080fd5b60006104ab8482850161044d565b91505092915050565b60006104c083836105be565b905092915050565b60006104d3826106cf565b6104dd81856106f2565b9350836020820285016104ef856106c2565b8060005b8581101561052b578484038952815161050c85826104b4565b9450610517836106e5565b925060208a019950506001810190506104f3565b50829750879550505050505092915050565b61054681610737565b82525050565b6000610557826106da565b6105618185610703565b935061057181856020860161076d565b61057a816107a0565b840191505092915050565b6000610590826106da565b61059a8185610714565b93506105aa81856020860161076d565b6105b3816107a0565b840191505092915050565b60006060830160008301516105d6600086018261060e565b50602083015184820360208601526105ee828261054c565b9150506040830151610603604086018261060e565b508091505092915050565b61061781610763565b82525050565b61062681610763565b82525050565b6000602082019050818103600083015261064681846104c8565b905092915050565b6000602082019050610663600083018461053d565b92915050565b600060208201905061067e600083018461061d565b92915050565b6000606082019050610699600083018661061d565b81810360208301526106ab8185610585565b90506106ba604083018461061d565b949350505050565b6000602082019050919050565b600081519050919050565b600081519050919050565b6000602082019050919050565b600082825260208201905092915050565b600082825260208201905092915050565b600082825260208201905092915050565b600061073082610743565b9050919050565b60008115159050919050565b600073ffffffffffffffffffffffffffffffffffffffff82169050919050565b6000819050919050565b60005b8381101561078b578082015181840152602081019050610770565b8381111561079a576000848401525b50505050565b6000601f19601f8301169050919050565b6107ba81610725565b81146107c557600080fd5b50565b6107d181610763565b81146107dc57600080fd5b5056fea265627a7a7230582015743d5e53ae095cb2854f516ceabb5dc272ba67fd692365b198fa8679bc86d16c6578706572696d656e74616cf50037",
  "source": "pragma solidity ^0.5.0;\npragma experimental ABIEncoderV2;\n\ncontract Election {\n    // Model a Candidate \n    struct Candidate {\n        uint id;\n        string name;\n        uint voteCount;\n    }\n\n    struct Voter  {\n        uint id;\n        string name;\n        bool voted;\n    }\n\n    // Store accounts that have voted\n    mapping(address => bool) public voters;\n    // Store Candidates\n    // Fetch Candidate\n    mapping(uint => Candidate) public candidates;\n    // Store Candidates Count\n    uint public candidatesCount;\n\n    // voted event\n    event votedEvent (\n        uint indexed _candidateId\n    );\n\n    constructor () public {\n        addCandidate(\"Tulsi Gabbard\");\n        addCandidate(\"Donald Trump\");\n        addCandidate(\"Hillary Clinton\");\n    }\n\n    function addCandidate (string  memory _name) private {\n        candidatesCount ++;\n        candidates[candidatesCount] = Candidate(candidatesCount, _name, 0);\n    }\n\n    function vote (uint _candidateId) public {\n        // require that they haven't voted before\n        require(!voters[msg.sender]);\n\n        // require a valid candidate\n        require(_candidateId > 0 && _candidateId <= candidatesCount);\n\n        // record that voter has voted\n        //voters[msg.sender] = true;\n\n        // update candidate vote Count\n        candidates[_candidateId].voteCount ++;\n\n        // trigger voted event\n        //emit votedEvent(_candidateId);\n    }\n    \n    function getCandidates() public view returns (Candidate[] memory){\n      Candidate[] memory lBids = new Candidate[](candidatesCount);\n      for (uint i = 0; i < candidatesCount; i++) {\n          Candidate memory candidate = candidates[i];\n          lBids[i] = candidate;\n      }\n      return lBids;\n    }\n}\n",
  "sourcePath": "/Users/sachinsharma/final_voting/contracts/Election.sol",
  "compiler": {
    "name": "solc",
    "version": "0.5.8+commit.23d335f2.Emscripten.clang"
  },
  "schemaVersion": "3.0.16",
  "updatedAt": "2019-12-01T10:47:29.257Z",
  "devdoc": {
    "methods": {}
  },
  "userdoc": {
    "methods": {}
  }
}