{
  "contractName": "Election",
  "abi": [
    {
      "inputs": [],
      "payable": false,
      "stateMutability": "nonpayable",
      "type": "constructor"
    },
    {
      "anonymous": false,
      "inputs": [
        {
          "indexed": true,
          "internalType": "uint256",
          "name": "_candidateId",
          "type": "uint256"
        }
      ],
      "name": "votedEvent",
      "type": "event"
    },
    {
      "constant": true,
      "inputs": [
        {
          "internalType": "uint256",
          "name": "",
          "type": "uint256"
        }
      ],
      "name": "candidates",
      "outputs": [
        {
          "internalType": "uint256",
          "name": "id",
          "type": "uint256"
        },
        {
          "internalType": "string",
          "name": "name",
          "type": "string"
        },
        {
          "internalType": "uint256",
          "name": "voteCount",
          "type": "uint256"
        }
      ],
      "payable": false,
      "stateMutability": "view",
      "type": "function"
    },
    {
      "constant": true,
      "inputs": [],
      "name": "candidatesCount",
      "outputs": [
        {
          "internalType": "uint256",
          "name": "",
          "type": "uint256"
        }
      ],
      "payable": false,
      "stateMutability": "view",
      "type": "function"
    },
    {
      "constant": true,
      "inputs": [
        {
          "internalType": "address",
          "name": "",
          "type": "address"
        }
      ],
      "name": "voters",
      "outputs": [
        {
          "internalType": "bool",
          "name": "",
          "type": "bool"
        }
      ],
      "payable": false,
      "stateMutability": "view",
      "type": "function"
    },
    {
      "constant": false,
      "inputs": [
        {
          "internalType": "uint256",
          "name": "_candidateId",
          "type": "uint256"
        }
      ],
      "name": "vote",
      "outputs": [],
      "payable": false,
      "stateMutability": "nonpayable",
      "type": "function"
    },
    {
      "constant": true,
      "inputs": [],
      "name": "getCandidates",
      "outputs": [
        {
          "components": [
            {
              "internalType": "uint256",
              "name": "id",
              "type": "uint256"
            },
            {
              "internalType": "string",
              "name": "name",
              "type": "string"
            },
            {
              "internalType": "uint256",
              "name": "voteCount",
              "type": "uint256"
            }
          ],
          "internalType": "struct Election.Candidate[]",
          "name": "",
          "type": "tuple[]"
        }
      ],
      "payable": false,
      "stateMutability": "view",
      "type": "function"
    }
  ],
  "bytecode": "0x608060405234801561001057600080fd5b506100556040518060400160405280600d81526020017f54756c73692047616262617264000000000000000000000000000000000000008152506100e260201b60201c565b6100996040518060400160405280600c81526020017f446f6e616c64205472756d7000000000000000000000000000000000000000008152506100e260201b60201c565b6100dd6040518060400160405280600f81526020017f48696c6c61727920436c696e746f6e00000000000000000000000000000000008152506100e260201b60201c565b610203565b60405180606001604052806002548152602001828152602001600081525060016000600254815260200190815260200160002060008201518160000155602082015181600101908051906020019061013b92919061015e565b506040820151816002015590505060026000815480929190600101919050555050565b828054600181600116156101000203166002900490600052602060002090601f016020900481019282601f1061019f57805160ff19168380011785556101cd565b828001600101855582156101cd579182015b828111156101cc5782518255916020019190600101906101b1565b5b5090506101da91906101de565b5090565b61020091905b808211156101fc5760008160009055506001016101e4565b5090565b90565b6107cf806102126000396000f3fe608060405234801561001057600080fd5b50600436106100575760003560e01c80630121b93f1461005c57806306a49fce146100785780632d35a8a2146100965780633477ee2e146100b4578063a3ec138d146100e6575b600080fd5b61007660048036036100719190810190610435565b610116565b005b61008061015a565b60405161008d91906105d6565b60405180910390f35b61009e6102b8565b6040516100ab9190610613565b60405180910390f35b6100ce60048036036100c99190810190610435565b6102be565b6040516100dd9392919061062e565b60405180910390f35b61010060048036036100fb919081019061040c565b610380565b60405161010d91906105f8565b60405180910390f35b60008111801561012857506002548111155b61013157600080fd5b600160008281526020019081526020016000206002016000815480929190600101919050555050565b60608060025460405190808252806020026020018201604052801561019957816020015b6101866103a0565b81526020019060019003908161017e5790505b50905060008090505b6002548110156102b0576101b46103c1565b6001600083815260200190815260200160002060405180606001604052908160008201548152602001600182018054600181600116156101000203166002900480601f0160208091040260200160405190810160405280929190818152602001828054600181600116156101000203166002900480156102755780601f1061024a57610100808354040283529160200191610275565b820191906000526020600020905b81548152906001019060200180831161025857829003601f168201915b5050505050815260200160028201548152505090508083838151811061029757fe5b60200260200101819052505080806001019150506101a2565b508091505090565b60025481565b6001602052806000526040600020600091509050806000015490806001018054600181600116156101000203166002900480601f0160208091040260200160405190810160405280929190818152602001828054600181600116156101000203166002900480156103705780601f1061034557610100808354040283529160200191610370565b820191906000526020600020905b81548152906001019060200180831161035357829003601f168201915b5050505050908060020154905083565b60006020528060005260406000206000915054906101000a900460ff1681565b60405180606001604052806000815260200160608152602001600081525090565b60405180606001604052806000815260200160608152602001600081525090565b6000813590506103f18161075e565b92915050565b60008135905061040681610775565b92915050565b60006020828403121561041e57600080fd5b600061042c848285016103e2565b91505092915050565b60006020828403121561044757600080fd5b6000610455848285016103f7565b91505092915050565b600061046a8383610568565b905092915050565b600061047d8261067c565b610487818561069f565b9350836020820285016104998561066c565b8060005b858110156104d557848403895281516104b6858261045e565b94506104c183610692565b925060208a0199505060018101905061049d565b50829750879550505050505092915050565b6104f0816106e4565b82525050565b600061050182610687565b61050b81856106b0565b935061051b81856020860161071a565b6105248161074d565b840191505092915050565b600061053a82610687565b61054481856106c1565b935061055481856020860161071a565b61055d8161074d565b840191505092915050565b600060608301600083015161058060008601826105b8565b506020830151848203602086015261059882826104f6565b91505060408301516105ad60408601826105b8565b508091505092915050565b6105c181610710565b82525050565b6105d081610710565b82525050565b600060208201905081810360008301526105f08184610472565b905092915050565b600060208201905061060d60008301846104e7565b92915050565b600060208201905061062860008301846105c7565b92915050565b600060608201905061064360008301866105c7565b8181036020830152610655818561052f565b905061066460408301846105c7565b949350505050565b6000819050602082019050919050565b600081519050919050565b600081519050919050565b6000602082019050919050565b600082825260208201905092915050565b600082825260208201905092915050565b600082825260208201905092915050565b60006106dd826106f0565b9050919050565b60008115159050919050565b600073ffffffffffffffffffffffffffffffffffffffff82169050919050565b6000819050919050565b60005b8381101561073857808201518184015260208101905061071d565b83811115610747576000848401525b50505050565b6000601f19601f8301169050919050565b610767816106d2565b811461077257600080fd5b50565b61077e81610710565b811461078957600080fd5b5056fea365627a7a723158206649adce51d8678e918ed00264b74c7f66907fd080679a82a219a661a140f1c46c6578706572696d656e74616cf564736f6c634300050c0040",
  "source": "pragma solidity ^0.5.0;\npragma experimental ABIEncoderV2;\n\ncontract Election {\n    struct Candidate {\n        uint id;\n        string name;\n        uint voteCount;\n    }\n\n    struct Voter {\n        uint id;\n        string name;\n        bool voted;\n    }\n\n    // Store accounts that have voted\n    mapping(address => bool) public voters;\n    // Store Candidates\n    // Fetch Candidate\n    mapping(uint => Candidate) public candidates;\n    // Store Candidates Count\n    uint public candidatesCount;\n\n    // voted event\n    event votedEvent (\n        uint indexed _candidateId\n    );\n\n    constructor () public {\n        addCandidate(\"Tulsi Gabbard\");\n        addCandidate(\"Donald Trump\");\n        addCandidate(\"Hillary Clinton\");\n    }\n\n    function addCandidate (string  memory _name) private {\n        candidates[candidatesCount] = Candidate(candidatesCount, _name, 0);\n        candidatesCount++;\n    }\n\n    function vote (uint _candidateId) public {\n        // require that they haven't voted before\n        //require(!voters[msg.sender]);\n\n        // require a valid candidate\n        require(_candidateId > 0 && _candidateId <= candidatesCount);\n\n        // record that voter has voted\n        //voters[msg.sender] = true;\n\n        // update candidate vote Count\n        candidates[_candidateId].voteCount++;\n\n        // trigger voted event\n        //emit votedEvent(_candidateId);\n    }\n    \n    function getCandidates() public view returns (Candidate[] memory){\n      Candidate[] memory lBids = new Candidate[](candidatesCount);\n      for (uint i = 0; i < candidatesCount; i++) {\n          Candidate memory candidate = candidates[i];\n          lBids[i] = candidate;\n      }\n      return lBids;\n    }\n}\n",
  "sourcePath": "/Users/sachinsharma/final_voting/contracts/Election.sol",
  "compiler": {
    "name": "solc",
    "version": "0.5.12+commit.7709ece9.Emscripten.clang"
  },
  "schemaVersion": "3.0.19",
  "updatedAt": "2020-02-21T04:05:20.209Z",
  "devdoc": {
    "methods": {}
  },
  "userdoc": {
    "methods": {}
  }
}