{
  "contractName": "VoterRegistration",
  "abi": [
    {
      "inputs": [],
      "payable": false,
      "stateMutability": "nonpayable",
      "type": "constructor"
    },
    {
      "constant": true,
      "inputs": [],
      "name": "count",
      "outputs": [
        {
          "internalType": "uint256",
          "name": "",
          "type": "uint256"
        }
      ],
      "payable": false,
      "stateMutability": "view",
      "type": "function"
    },
    {
      "constant": true,
      "inputs": [
        {
          "internalType": "uint256",
          "name": "",
          "type": "uint256"
        }
      ],
      "name": "voters",
      "outputs": [
        {
          "internalType": "address",
          "name": "voterAddress",
          "type": "address"
        },
        {
          "internalType": "uint256",
          "name": "user_id",
          "type": "uint256"
        },
        {
          "internalType": "string",
          "name": "first_name",
          "type": "string"
        },
        {
          "internalType": "string",
          "name": "last_name",
          "type": "string"
        },
        {
          "internalType": "string",
          "name": "ssn",
          "type": "string"
        },
        {
          "internalType": "bool",
          "name": "voted",
          "type": "bool"
        },
        {
          "internalType": "string",
          "name": "username",
          "type": "string"
        },
        {
          "internalType": "string",
          "name": "password",
          "type": "string"
        }
      ],
      "payable": false,
      "stateMutability": "view",
      "type": "function"
    },
    {
      "constant": false,
      "inputs": [
        {
          "internalType": "string",
          "name": "_first_name",
          "type": "string"
        },
        {
          "internalType": "string",
          "name": "_last_name",
          "type": "string"
        },
        {
          "internalType": "string",
          "name": "_ssn",
          "type": "string"
        },
        {
          "internalType": "string",
          "name": "_username",
          "type": "string"
        },
        {
          "internalType": "string",
          "name": "_password",
          "type": "string"
        }
      ],
      "name": "register",
      "outputs": [],
      "payable": false,
      "stateMutability": "nonpayable",
      "type": "function"
    },
    {
      "constant": false,
      "inputs": [
        {
          "internalType": "uint256",
          "name": "_user_id",
          "type": "uint256"
        }
      ],
      "name": "userVoted",
      "outputs": [],
      "payable": false,
      "stateMutability": "nonpayable",
      "type": "function"
    },
    {
      "constant": true,
      "inputs": [
        {
          "internalType": "uint256",
          "name": "_user_id",
          "type": "uint256"
        }
      ],
      "name": "getVoterInformation",
      "outputs": [
        {
          "components": [
            {
              "internalType": "address",
              "name": "voterAddress",
              "type": "address"
            },
            {
              "internalType": "uint256",
              "name": "user_id",
              "type": "uint256"
            },
            {
              "internalType": "string",
              "name": "first_name",
              "type": "string"
            },
            {
              "internalType": "string",
              "name": "last_name",
              "type": "string"
            },
            {
              "internalType": "string",
              "name": "ssn",
              "type": "string"
            },
            {
              "internalType": "bool",
              "name": "voted",
              "type": "bool"
            },
            {
              "internalType": "string",
              "name": "username",
              "type": "string"
            },
            {
              "internalType": "string",
              "name": "password",
              "type": "string"
            }
          ],
          "internalType": "struct VoterRegistration.Voter",
          "name": "",
          "type": "tuple"
        }
      ],
      "payable": false,
      "stateMutability": "view",
      "type": "function"
    },
    {
      "constant": true,
      "inputs": [],
      "name": "getCount",
      "outputs": [
        {
          "internalType": "uint256",
          "name": "",
          "type": "uint256"
        }
      ],
      "payable": false,
      "stateMutability": "view",
      "type": "function"
    },
    {
      "constant": true,
      "inputs": [],
      "name": "getList",
      "outputs": [
        {
          "components": [
            {
              "internalType": "address",
              "name": "voterAddress",
              "type": "address"
            },
            {
              "internalType": "uint256",
              "name": "user_id",
              "type": "uint256"
            },
            {
              "internalType": "string",
              "name": "first_name",
              "type": "string"
            },
            {
              "internalType": "string",
              "name": "last_name",
              "type": "string"
            },
            {
              "internalType": "string",
              "name": "ssn",
              "type": "string"
            },
            {
              "internalType": "bool",
              "name": "voted",
              "type": "bool"
            },
            {
              "internalType": "string",
              "name": "username",
              "type": "string"
            },
            {
              "internalType": "string",
              "name": "password",
              "type": "string"
            }
          ],
          "internalType": "struct VoterRegistration.Voter[]",
          "name": "",
          "type": "tuple[]"
        }
      ],
      "payable": false,
      "stateMutability": "view",
      "type": "function"
    },
    {
      "constant": true,
      "inputs": [
        {
          "internalType": "string",
          "name": "_username",
          "type": "string"
        },
        {
          "internalType": "string",
          "name": "_password",
          "type": "string"
        }
      ],
      "name": "login",
      "outputs": [
        {
          "internalType": "bool",
          "name": "",
          "type": "bool"
        }
      ],
      "payable": false,
      "stateMutability": "view",
      "type": "function"
    }
  ],
  "bytecode": "0x608060405234801561001057600080fd5b50611a2f806100206000396000f3fe608060405234801561001057600080fd5b50600436106100885760003560e01c8063942b765a1161005b578063942b765a14610113578063a87d942c14610131578063cd20a3531461014f578063da58c7d91461017f57610088565b806306661abd1461008d578063397e0eeb146100ab57806358467dbc146100c75780635a09007b146100f7575b600080fd5b6100956101b6565b6040516100a29190611835565b60405180910390f35b6100c560048036036100c09190810190611332565b6101bc565b005b6100e160048036036100dc91908101906111d7565b6101f3565b6040516100ee91906117f8565b60405180910390f35b610111600480360361010c9190810190611243565b6102f2565b005b61011b610485565b60405161012891906117d6565b60405180910390f35b6101396108c6565b6040516101469190611835565b60405180910390f35b61016960048036036101649190810190611332565b6108d0565b6040516101769190611813565b60405180910390f35b61019960048036036101949190810190611332565b610ca2565b6040516101ad989796959493929190611735565b60405180910390f35b60015481565b6000806000838152602001908152602001600020905060018160050160006101000a81548160ff0219169083151502179055505050565b60008060008090505b6001548110156102e757600080600083815260200190815260200160002090508560405160200161022d9190611707565b6040516020818303038152906040528051906020012081600601604051602001610257919061171e565b6040516020818303038152906040528051906020012014156102d457846040516020016102849190611707565b60405160208183030381529060405280519060200120816007016040516020016102ae919061171e565b6040516020818303038152906040528051906020012014156102cf57600192505b6102d9565b600092505b5080806001019150506101fc565b508091505092915050565b6102fa61100f565b6040518061010001604052803373ffffffffffffffffffffffffffffffffffffffff168152602001600154815260200187815260200186815260200185815260200160001515815260200184815260200183815250905080600080600154815260200190815260200160002060008201518160000160006101000a81548173ffffffffffffffffffffffffffffffffffffffff021916908373ffffffffffffffffffffffffffffffffffffffff1602179055506020820151816001015560408201518160020190805190602001906103d392919061106c565b5060608201518160030190805190602001906103f092919061106c565b50608082015181600401908051906020019061040d92919061106c565b5060a08201518160050160006101000a81548160ff02191690831515021790555060c082015181600601908051906020019061044a92919061106c565b5060e082015181600701908051906020019061046792919061106c565b50905050600160008154809291906001019190505550505050505050565b6060806001546040519080825280602002602001820160405280156104c457816020015b6104b16110ec565b8152602001906001900390816104a95790505b50905060008090505b6001548110156108be57600080828152602001908152602001600020604051806101000160405290816000820160009054906101000a900473ffffffffffffffffffffffffffffffffffffffff1673ffffffffffffffffffffffffffffffffffffffff1673ffffffffffffffffffffffffffffffffffffffff16815260200160018201548152602001600282018054600181600116156101000203166002900480601f0160208091040260200160405190810160405280929190818152602001828054600181600116156101000203166002900480156105ee5780601f106105c3576101008083540402835291602001916105ee565b820191906000526020600020905b8154815290600101906020018083116105d157829003601f168201915b50505050508152602001600382018054600181600116156101000203166002900480601f0160208091040260200160405190810160405280929190818152602001828054600181600116156101000203166002900480156106905780601f1061066557610100808354040283529160200191610690565b820191906000526020600020905b81548152906001019060200180831161067357829003601f168201915b50505050508152602001600482018054600181600116156101000203166002900480601f0160208091040260200160405190810160405280929190818152602001828054600181600116156101000203166002900480156107325780601f1061070757610100808354040283529160200191610732565b820191906000526020600020905b81548152906001019060200180831161071557829003601f168201915b505050505081526020016005820160009054906101000a900460ff16151515158152602001600682018054600181600116156101000203166002900480601f0160208091040260200160405190810160405280929190818152602001828054600181600116156101000203166002900480156107ef5780601f106107c4576101008083540402835291602001916107ef565b820191906000526020600020905b8154815290600101906020018083116107d257829003601f168201915b50505050508152602001600782018054600181600116156101000203166002900480601f0160208091040260200160405190810160405280929190818152602001828054600181600116156101000203166002900480156108915780601f1061086657610100808354040283529160200191610891565b820191906000526020600020905b81548152906001019060200180831161087457829003601f168201915b5050505050815250508282815181106108a657fe5b602002602001018190525080806001019150506104cd565b508091505090565b6000600154905090565b6108d861100f565b600080838152602001908152602001600020604051806101000160405290816000820160009054906101000a900473ffffffffffffffffffffffffffffffffffffffff1673ffffffffffffffffffffffffffffffffffffffff1673ffffffffffffffffffffffffffffffffffffffff16815260200160018201548152602001600282018054600181600116156101000203166002900480601f0160208091040260200160405190810160405280929190818152602001828054600181600116156101000203166002900480156109ef5780601f106109c4576101008083540402835291602001916109ef565b820191906000526020600020905b8154815290600101906020018083116109d257829003601f168201915b50505050508152602001600382018054600181600116156101000203166002900480601f016020809104026020016040519081016040528092919081815260200182805460018160011615610100020316600290048015610a915780601f10610a6657610100808354040283529160200191610a91565b820191906000526020600020905b815481529060010190602001808311610a7457829003601f168201915b50505050508152602001600482018054600181600116156101000203166002900480601f016020809104026020016040519081016040528092919081815260200182805460018160011615610100020316600290048015610b335780601f10610b0857610100808354040283529160200191610b33565b820191906000526020600020905b815481529060010190602001808311610b1657829003601f168201915b505050505081526020016005820160009054906101000a900460ff16151515158152602001600682018054600181600116156101000203166002900480601f016020809104026020016040519081016040528092919081815260200182805460018160011615610100020316600290048015610bf05780601f10610bc557610100808354040283529160200191610bf0565b820191906000526020600020905b815481529060010190602001808311610bd357829003601f168201915b50505050508152602001600782018054600181600116156101000203166002900480601f016020809104026020016040519081016040528092919081815260200182805460018160011615610100020316600290048015610c925780601f10610c6757610100808354040283529160200191610c92565b820191906000526020600020905b815481529060010190602001808311610c7557829003601f168201915b5050505050815250509050919050565b60006020528060005260406000206000915090508060000160009054906101000a900473ffffffffffffffffffffffffffffffffffffffff1690806001015490806002018054600181600116156101000203166002900480601f016020809104026020016040519081016040528092919081815260200182805460018160011615610100020316600290048015610d7a5780601f10610d4f57610100808354040283529160200191610d7a565b820191906000526020600020905b815481529060010190602001808311610d5d57829003601f168201915b505050505090806003018054600181600116156101000203166002900480601f016020809104026020016040519081016040528092919081815260200182805460018160011615610100020316600290048015610e185780601f10610ded57610100808354040283529160200191610e18565b820191906000526020600020905b815481529060010190602001808311610dfb57829003601f168201915b505050505090806004018054600181600116156101000203166002900480601f016020809104026020016040519081016040528092919081815260200182805460018160011615610100020316600290048015610eb65780601f10610e8b57610100808354040283529160200191610eb6565b820191906000526020600020905b815481529060010190602001808311610e9957829003601f168201915b5050505050908060050160009054906101000a900460ff1690806006018054600181600116156101000203166002900480601f016020809104026020016040519081016040528092919081815260200182805460018160011615610100020316600290048015610f675780601f10610f3c57610100808354040283529160200191610f67565b820191906000526020600020905b815481529060010190602001808311610f4a57829003601f168201915b505050505090806007018054600181600116156101000203166002900480601f0160208091040260200160405190810160405280929190818152602001828054600181600116156101000203166002900480156110055780601f10610fda57610100808354040283529160200191611005565b820191906000526020600020905b815481529060010190602001808311610fe857829003601f168201915b5050505050905088565b604051806101000160405280600073ffffffffffffffffffffffffffffffffffffffff1681526020016000815260200160608152602001606081526020016060815260200160001515815260200160608152602001606081525090565b828054600181600116156101000203166002900490600052602060002090601f016020900481019282601f106110ad57805160ff19168380011785556110db565b828001600101855582156110db579182015b828111156110da5782518255916020019190600101906110bf565b5b5090506110e89190611149565b5090565b604051806101000160405280600073ffffffffffffffffffffffffffffffffffffffff1681526020016000815260200160608152602001606081526020016060815260200160001515815260200160608152602001606081525090565b61116b91905b8082111561116757600081600090555060010161114f565b5090565b90565b600082601f83011261117f57600080fd5b813561119261118d8261187d565b611850565b915080825260208301602083018583830111156111ae57600080fd5b6111b9838284611982565b50505092915050565b6000813590506111d1816119d5565b92915050565b600080604083850312156111ea57600080fd5b600083013567ffffffffffffffff81111561120457600080fd5b6112108582860161116e565b925050602083013567ffffffffffffffff81111561122d57600080fd5b6112398582860161116e565b9150509250929050565b600080600080600060a0868803121561125b57600080fd5b600086013567ffffffffffffffff81111561127557600080fd5b6112818882890161116e565b955050602086013567ffffffffffffffff81111561129e57600080fd5b6112aa8882890161116e565b945050604086013567ffffffffffffffff8111156112c757600080fd5b6112d38882890161116e565b935050606086013567ffffffffffffffff8111156112f057600080fd5b6112fc8882890161116e565b925050608086013567ffffffffffffffff81111561131957600080fd5b6113258882890161116e565b9150509295509295909350565b60006020828403121561134457600080fd5b6000611352848285016111c2565b91505092915050565b6000611367838361161d565b905092915050565b6113788161193a565b82525050565b6113878161193a565b82525050565b6000611398826118ce565b6113a281856118fc565b9350836020820285016113b4856118a9565b8060005b858110156113f057848403895281516113d1858261135b565b94506113dc836118ef565b925060208a019950506001810190506113b8565b50829750879550505050505092915050565b61140b8161194c565b82525050565b61141a8161194c565b82525050565b600061142b826118e4565b611435818561192f565b9350611445818560208601611991565b80840191505092915050565b600061145c826118d9565b611466818561190d565b9350611476818560208601611991565b61147f816119c4565b840191505092915050565b6000611495826118d9565b61149f818561191e565b93506114af818560208601611991565b6114b8816119c4565b840191505092915050565b6000815460018116600081146114e0576001811461150557611549565b607f60028304166114f1818761192f565b955060ff1983168652808601935050611549565b60028204611513818761192f565b955061151e856118b9565b60005b8281101561154057815481890152600182019150602081019050611521565b82880195505050505b505092915050565b60006101008301600083015161156a600086018261136f565b50602083015161157d60208601826116e9565b50604083015184820360408601526115958282611451565b915050606083015184820360608601526115af8282611451565b915050608083015184820360808601526115c98282611451565b91505060a08301516115de60a0860182611402565b5060c083015184820360c08601526115f68282611451565b91505060e083015184820360e08601526116108282611451565b9150508091505092915050565b600061010083016000830151611636600086018261136f565b50602083015161164960208601826116e9565b50604083015184820360408601526116618282611451565b9150506060830151848203606086015261167b8282611451565b915050608083015184820360808601526116958282611451565b91505060a08301516116aa60a0860182611402565b5060c083015184820360c08601526116c28282611451565b91505060e083015184820360e08601526116dc8282611451565b9150508091505092915050565b6116f281611978565b82525050565b61170181611978565b82525050565b60006117138284611420565b915081905092915050565b600061172a82846114c3565b915081905092915050565b60006101008201905061174b600083018b61137e565b611758602083018a6116f8565b818103604083015261176a818961148a565b9050818103606083015261177e818861148a565b90508181036080830152611792818761148a565b90506117a160a0830186611411565b81810360c08301526117b3818561148a565b905081810360e08301526117c7818461148a565b90509998505050505050505050565b600060208201905081810360008301526117f0818461138d565b905092915050565b600060208201905061180d6000830184611411565b92915050565b6000602082019050818103600083015261182d8184611551565b905092915050565b600060208201905061184a60008301846116f8565b92915050565b6000604051905081810181811067ffffffffffffffff8211171561187357600080fd5b8060405250919050565b600067ffffffffffffffff82111561189457600080fd5b601f19601f8301169050602081019050919050565b6000819050602082019050919050565b60008190508160005260206000209050919050565b600081519050919050565b600081519050919050565b600081519050919050565b6000602082019050919050565b600082825260208201905092915050565b600082825260208201905092915050565b600082825260208201905092915050565b600081905092915050565b600061194582611958565b9050919050565b60008115159050919050565b600073ffffffffffffffffffffffffffffffffffffffff82169050919050565b6000819050919050565b82818337600083830152505050565b60005b838110156119af578082015181840152602081019050611994565b838111156119be576000848401525b50505050565b6000601f19601f8301169050919050565b6119de81611978565b81146119e957600080fd5b5056fea365627a7a723158209077f5eddbc5d7bead1a3dc5bb90dcb0f37488a7868f1e4fe0e8b21c057ab3ba6c6578706572696d656e74616cf564736f6c63430005100040",
  "source": "pragma solidity ^0.5.0;\npragma experimental ABIEncoderV2;\n\n\ncontract VoterRegistration {\n    struct Voter {\n        address voterAddress;\n        uint user_id;\n        string first_name;\n        string last_name;\n        string ssn;\n        bool voted;\n        string username;\n        string password;\n    }\n    \n    // Store Voters\n    // Fetch Voters\n    mapping(uint  => Voter) public voters;\n    // Store Voters Count\n    uint public count;\n    \n    constructor() public {\n        \n    }\n    \n    function register(string memory _first_name,string memory _last_name,string memory _ssn,string memory _username,string memory _password) public {\n        Voter memory voter = Voter(msg.sender,count,_first_name,_last_name,_ssn,false,_username,_password);\n        voters[count] = voter;\n        count++;\n    }\n    \n    function userVoted(uint  _user_id) public {\n        Voter storage voter = voters[_user_id];\n        voter.voted = true;\n    }\n    \n    function getVoterInformation(uint _user_id) public view returns (Voter memory) {\n        return voters[_user_id];\n    }\n    \n    function getCount() public view returns (uint){\n        return count;\n    }\n    \n    function  getList () public view returns (Voter[] memory){\n        Voter[] memory list = new Voter[](count);\n        for(uint i =0 ; i < count; i++){\n            list[i] = voters[i];\n        }\n        return list;\n    }\n    \n    \n    function login(string memory _username,string memory _password) public view returns (bool){\n        bool isValidVoter;\n        for(uint i =0; i < count; i++){\n            Voter storage voter = voters[i];\n            \n            if (keccak256(abi.encodePacked(voter.username)) == keccak256(abi.encodePacked(_username))) {\n                if (keccak256(abi.encodePacked(voter.password)) == keccak256(abi.encodePacked(_password))) {\n                    isValidVoter = true;\n                }\n            }\n            else {\n                isValidVoter = false;\n            }\n        }\n        return isValidVoter;\n    }\n    \n    \n}",
  "sourcePath": "/Users/sachinsharma/final_voting/contracts/VoterRegistration.sol",
  "compiler": {
    "name": "solc",
    "version": "0.5.16+commit.9c3226ce.Emscripten.clang"
  },
  "schemaVersion": "3.0.23",
  "updatedAt": "2020-03-08T03:03:53.532Z",
  "networkType": "ethereum",
  "devdoc": {
    "methods": {}
  },
  "userdoc": {
    "methods": {}
  }
}