{
  "contractName": "VoterContract",
  "abi": [
    {
      "inputs": [],
      "payable": false,
      "stateMutability": "nonpayable",
      "type": "constructor"
    },
    {
      "constant": true,
      "inputs": [],
      "name": "count",
      "outputs": [
        {
          "internalType": "uint256",
          "name": "",
          "type": "uint256"
        }
      ],
      "payable": false,
      "stateMutability": "view",
      "type": "function"
    },
    {
      "constant": true,
      "inputs": [
        {
          "internalType": "uint256",
          "name": "",
          "type": "uint256"
        }
      ],
      "name": "voters",
      "outputs": [
        {
          "internalType": "address",
          "name": "voterAddress",
          "type": "address"
        },
        {
          "internalType": "uint256",
          "name": "user_id",
          "type": "uint256"
        },
        {
          "internalType": "string",
          "name": "first_name",
          "type": "string"
        },
        {
          "internalType": "string",
          "name": "last_name",
          "type": "string"
        },
        {
          "internalType": "string",
          "name": "ssn",
          "type": "string"
        },
        {
          "internalType": "bool",
          "name": "voted",
          "type": "bool"
        },
        {
          "internalType": "string",
          "name": "username",
          "type": "string"
        },
        {
          "internalType": "string",
          "name": "password",
          "type": "string"
        }
      ],
      "payable": false,
      "stateMutability": "view",
      "type": "function"
    },
    {
      "constant": false,
      "inputs": [
        {
          "internalType": "string",
          "name": "_first_name",
          "type": "string"
        },
        {
          "internalType": "string",
          "name": "_last_name",
          "type": "string"
        },
        {
          "internalType": "string",
          "name": "_ssn",
          "type": "string"
        },
        {
          "internalType": "string",
          "name": "_username",
          "type": "string"
        },
        {
          "internalType": "string",
          "name": "_password",
          "type": "string"
        }
      ],
      "name": "register",
      "outputs": [],
      "payable": false,
      "stateMutability": "nonpayable",
      "type": "function"
    },
    {
      "constant": false,
      "inputs": [
        {
          "internalType": "uint256",
          "name": "_user_id",
          "type": "uint256"
        }
      ],
      "name": "userVoted",
      "outputs": [],
      "payable": false,
      "stateMutability": "nonpayable",
      "type": "function"
    },
    {
      "constant": true,
      "inputs": [
        {
          "internalType": "uint256",
          "name": "_user_id",
          "type": "uint256"
        }
      ],
      "name": "getVoterInformation",
      "outputs": [
        {
          "components": [
            {
              "internalType": "address",
              "name": "voterAddress",
              "type": "address"
            },
            {
              "internalType": "uint256",
              "name": "user_id",
              "type": "uint256"
            },
            {
              "internalType": "string",
              "name": "first_name",
              "type": "string"
            },
            {
              "internalType": "string",
              "name": "last_name",
              "type": "string"
            },
            {
              "internalType": "string",
              "name": "ssn",
              "type": "string"
            },
            {
              "internalType": "bool",
              "name": "voted",
              "type": "bool"
            },
            {
              "internalType": "string",
              "name": "username",
              "type": "string"
            },
            {
              "internalType": "string",
              "name": "password",
              "type": "string"
            }
          ],
          "internalType": "struct VoterContract.Voter",
          "name": "",
          "type": "tuple"
        }
      ],
      "payable": false,
      "stateMutability": "view",
      "type": "function"
    },
    {
      "constant": true,
      "inputs": [],
      "name": "getVoterCount",
      "outputs": [
        {
          "internalType": "uint256",
          "name": "",
          "type": "uint256"
        }
      ],
      "payable": false,
      "stateMutability": "view",
      "type": "function"
    },
    {
      "constant": true,
      "inputs": [],
      "name": "getVoterList",
      "outputs": [
        {
          "components": [
            {
              "internalType": "address",
              "name": "voterAddress",
              "type": "address"
            },
            {
              "internalType": "uint256",
              "name": "user_id",
              "type": "uint256"
            },
            {
              "internalType": "string",
              "name": "first_name",
              "type": "string"
            },
            {
              "internalType": "string",
              "name": "last_name",
              "type": "string"
            },
            {
              "internalType": "string",
              "name": "ssn",
              "type": "string"
            },
            {
              "internalType": "bool",
              "name": "voted",
              "type": "bool"
            },
            {
              "internalType": "string",
              "name": "username",
              "type": "string"
            },
            {
              "internalType": "string",
              "name": "password",
              "type": "string"
            }
          ],
          "internalType": "struct VoterContract.Voter[]",
          "name": "",
          "type": "tuple[]"
        }
      ],
      "payable": false,
      "stateMutability": "view",
      "type": "function"
    },
    {
      "constant": true,
      "inputs": [
        {
          "internalType": "string",
          "name": "_username",
          "type": "string"
        },
        {
          "internalType": "string",
          "name": "_password",
          "type": "string"
        }
      ],
      "name": "login",
      "outputs": [
        {
          "internalType": "bool",
          "name": "",
          "type": "bool"
        }
      ],
      "payable": false,
      "stateMutability": "view",
      "type": "function"
    }
  ],
  "bytecode": "0x608060405234801561001057600080fd5b50611a2c806100206000396000f3fe608060405234801561001057600080fd5b50600436106100885760003560e01c80635a09007b1161005b5780635a09007b14610115578063b28d92ae14610131578063cd20a3531461014f578063da58c7d91461017f57610088565b806306661abd1461008d57806311174a29146100ab578063397e0eeb146100c957806358467dbc146100e5575b600080fd5b6100956101b6565b6040516100a29190611832565b60405180910390f35b6100b36101bc565b6040516100c09190611832565b60405180910390f35b6100e360048036036100de919081019061132f565b6101c6565b005b6100ff60048036036100fa91908101906111d4565b6101fd565b60405161010c91906117f5565b60405180910390f35b61012f600480360361012a9190810190611240565b6102f9565b005b61013961048c565b60405161014691906117d3565b60405180910390f35b6101696004803603610164919081019061132f565b6108cd565b6040516101769190611810565b60405180910390f35b6101996004803603610194919081019061132f565b610c9f565b6040516101ad989796959493929190611732565b60405180910390f35b60015481565b6000600154905090565b6000806000838152602001908152602001600020905060018160050160006101000a81548160ff0219169083151502179055505050565b600080600090505b6001548110156102ed5760008060008381526020019081526020016000209050846040516020016102369190611704565b6040516020818303038152906040528051906020012081600601604051602001610260919061171b565b6040516020818303038152906040528051906020012014156102df578360405160200161028d9190611704565b60405160208183030381529060405280519060200120816007016040516020016102b7919061171b565b6040516020818303038152906040528051906020012014156102de576001925050506102f3565b5b508080600101915050610205565b50600090505b92915050565b61030161100c565b6040518061010001604052803373ffffffffffffffffffffffffffffffffffffffff168152602001600154815260200187815260200186815260200185815260200160001515815260200184815260200183815250905080600080600154815260200190815260200160002060008201518160000160006101000a81548173ffffffffffffffffffffffffffffffffffffffff021916908373ffffffffffffffffffffffffffffffffffffffff1602179055506020820151816001015560408201518160020190805190602001906103da929190611069565b5060608201518160030190805190602001906103f7929190611069565b506080820151816004019080519060200190610414929190611069565b5060a08201518160050160006101000a81548160ff02191690831515021790555060c0820151816006019080519060200190610451929190611069565b5060e082015181600701908051906020019061046e929190611069565b50905050600160008154809291906001019190505550505050505050565b6060806001546040519080825280602002602001820160405280156104cb57816020015b6104b86110e9565b8152602001906001900390816104b05790505b50905060008090505b6001548110156108c557600080828152602001908152602001600020604051806101000160405290816000820160009054906101000a900473ffffffffffffffffffffffffffffffffffffffff1673ffffffffffffffffffffffffffffffffffffffff1673ffffffffffffffffffffffffffffffffffffffff16815260200160018201548152602001600282018054600181600116156101000203166002900480601f0160208091040260200160405190810160405280929190818152602001828054600181600116156101000203166002900480156105f55780601f106105ca576101008083540402835291602001916105f5565b820191906000526020600020905b8154815290600101906020018083116105d857829003601f168201915b50505050508152602001600382018054600181600116156101000203166002900480601f0160208091040260200160405190810160405280929190818152602001828054600181600116156101000203166002900480156106975780601f1061066c57610100808354040283529160200191610697565b820191906000526020600020905b81548152906001019060200180831161067a57829003601f168201915b50505050508152602001600482018054600181600116156101000203166002900480601f0160208091040260200160405190810160405280929190818152602001828054600181600116156101000203166002900480156107395780601f1061070e57610100808354040283529160200191610739565b820191906000526020600020905b81548152906001019060200180831161071c57829003601f168201915b505050505081526020016005820160009054906101000a900460ff16151515158152602001600682018054600181600116156101000203166002900480601f0160208091040260200160405190810160405280929190818152602001828054600181600116156101000203166002900480156107f65780601f106107cb576101008083540402835291602001916107f6565b820191906000526020600020905b8154815290600101906020018083116107d957829003601f168201915b50505050508152602001600782018054600181600116156101000203166002900480601f0160208091040260200160405190810160405280929190818152602001828054600181600116156101000203166002900480156108985780601f1061086d57610100808354040283529160200191610898565b820191906000526020600020905b81548152906001019060200180831161087b57829003601f168201915b5050505050815250508282815181106108ad57fe5b602002602001018190525080806001019150506104d4565b508091505090565b6108d561100c565b600080838152602001908152602001600020604051806101000160405290816000820160009054906101000a900473ffffffffffffffffffffffffffffffffffffffff1673ffffffffffffffffffffffffffffffffffffffff1673ffffffffffffffffffffffffffffffffffffffff16815260200160018201548152602001600282018054600181600116156101000203166002900480601f0160208091040260200160405190810160405280929190818152602001828054600181600116156101000203166002900480156109ec5780601f106109c1576101008083540402835291602001916109ec565b820191906000526020600020905b8154815290600101906020018083116109cf57829003601f168201915b50505050508152602001600382018054600181600116156101000203166002900480601f016020809104026020016040519081016040528092919081815260200182805460018160011615610100020316600290048015610a8e5780601f10610a6357610100808354040283529160200191610a8e565b820191906000526020600020905b815481529060010190602001808311610a7157829003601f168201915b50505050508152602001600482018054600181600116156101000203166002900480601f016020809104026020016040519081016040528092919081815260200182805460018160011615610100020316600290048015610b305780601f10610b0557610100808354040283529160200191610b30565b820191906000526020600020905b815481529060010190602001808311610b1357829003601f168201915b505050505081526020016005820160009054906101000a900460ff16151515158152602001600682018054600181600116156101000203166002900480601f016020809104026020016040519081016040528092919081815260200182805460018160011615610100020316600290048015610bed5780601f10610bc257610100808354040283529160200191610bed565b820191906000526020600020905b815481529060010190602001808311610bd057829003601f168201915b50505050508152602001600782018054600181600116156101000203166002900480601f016020809104026020016040519081016040528092919081815260200182805460018160011615610100020316600290048015610c8f5780601f10610c6457610100808354040283529160200191610c8f565b820191906000526020600020905b815481529060010190602001808311610c7257829003601f168201915b5050505050815250509050919050565b60006020528060005260406000206000915090508060000160009054906101000a900473ffffffffffffffffffffffffffffffffffffffff1690806001015490806002018054600181600116156101000203166002900480601f016020809104026020016040519081016040528092919081815260200182805460018160011615610100020316600290048015610d775780601f10610d4c57610100808354040283529160200191610d77565b820191906000526020600020905b815481529060010190602001808311610d5a57829003601f168201915b505050505090806003018054600181600116156101000203166002900480601f016020809104026020016040519081016040528092919081815260200182805460018160011615610100020316600290048015610e155780601f10610dea57610100808354040283529160200191610e15565b820191906000526020600020905b815481529060010190602001808311610df857829003601f168201915b505050505090806004018054600181600116156101000203166002900480601f016020809104026020016040519081016040528092919081815260200182805460018160011615610100020316600290048015610eb35780601f10610e8857610100808354040283529160200191610eb3565b820191906000526020600020905b815481529060010190602001808311610e9657829003601f168201915b5050505050908060050160009054906101000a900460ff1690806006018054600181600116156101000203166002900480601f016020809104026020016040519081016040528092919081815260200182805460018160011615610100020316600290048015610f645780601f10610f3957610100808354040283529160200191610f64565b820191906000526020600020905b815481529060010190602001808311610f4757829003601f168201915b505050505090806007018054600181600116156101000203166002900480601f0160208091040260200160405190810160405280929190818152602001828054600181600116156101000203166002900480156110025780601f10610fd757610100808354040283529160200191611002565b820191906000526020600020905b815481529060010190602001808311610fe557829003601f168201915b5050505050905088565b604051806101000160405280600073ffffffffffffffffffffffffffffffffffffffff1681526020016000815260200160608152602001606081526020016060815260200160001515815260200160608152602001606081525090565b828054600181600116156101000203166002900490600052602060002090601f016020900481019282601f106110aa57805160ff19168380011785556110d8565b828001600101855582156110d8579182015b828111156110d75782518255916020019190600101906110bc565b5b5090506110e59190611146565b5090565b604051806101000160405280600073ffffffffffffffffffffffffffffffffffffffff1681526020016000815260200160608152602001606081526020016060815260200160001515815260200160608152602001606081525090565b61116891905b8082111561116457600081600090555060010161114c565b5090565b90565b600082601f83011261117c57600080fd5b813561118f61118a8261187a565b61184d565b915080825260208301602083018583830111156111ab57600080fd5b6111b683828461197f565b50505092915050565b6000813590506111ce816119d2565b92915050565b600080604083850312156111e757600080fd5b600083013567ffffffffffffffff81111561120157600080fd5b61120d8582860161116b565b925050602083013567ffffffffffffffff81111561122a57600080fd5b6112368582860161116b565b9150509250929050565b600080600080600060a0868803121561125857600080fd5b600086013567ffffffffffffffff81111561127257600080fd5b61127e8882890161116b565b955050602086013567ffffffffffffffff81111561129b57600080fd5b6112a78882890161116b565b945050604086013567ffffffffffffffff8111156112c457600080fd5b6112d08882890161116b565b935050606086013567ffffffffffffffff8111156112ed57600080fd5b6112f98882890161116b565b925050608086013567ffffffffffffffff81111561131657600080fd5b6113228882890161116b565b9150509295509295909350565b60006020828403121561134157600080fd5b600061134f848285016111bf565b91505092915050565b6000611364838361161a565b905092915050565b61137581611937565b82525050565b61138481611937565b82525050565b6000611395826118cb565b61139f81856118f9565b9350836020820285016113b1856118a6565b8060005b858110156113ed57848403895281516113ce8582611358565b94506113d9836118ec565b925060208a019950506001810190506113b5565b50829750879550505050505092915050565b61140881611949565b82525050565b61141781611949565b82525050565b6000611428826118e1565b611432818561192c565b935061144281856020860161198e565b80840191505092915050565b6000611459826118d6565b611463818561190a565b935061147381856020860161198e565b61147c816119c1565b840191505092915050565b6000611492826118d6565b61149c818561191b565b93506114ac81856020860161198e565b6114b5816119c1565b840191505092915050565b6000815460018116600081146114dd576001811461150257611546565b607f60028304166114ee818761192c565b955060ff1983168652808601935050611546565b60028204611510818761192c565b955061151b856118b6565b60005b8281101561153d5781548189015260018201915060208101905061151e565b82880195505050505b505092915050565b600061010083016000830151611567600086018261136c565b50602083015161157a60208601826116e6565b5060408301518482036040860152611592828261144e565b915050606083015184820360608601526115ac828261144e565b915050608083015184820360808601526115c6828261144e565b91505060a08301516115db60a08601826113ff565b5060c083015184820360c08601526115f3828261144e565b91505060e083015184820360e086015261160d828261144e565b9150508091505092915050565b600061010083016000830151611633600086018261136c565b50602083015161164660208601826116e6565b506040830151848203604086015261165e828261144e565b91505060608301518482036060860152611678828261144e565b91505060808301518482036080860152611692828261144e565b91505060a08301516116a760a08601826113ff565b5060c083015184820360c08601526116bf828261144e565b91505060e083015184820360e08601526116d9828261144e565b9150508091505092915050565b6116ef81611975565b82525050565b6116fe81611975565b82525050565b6000611710828461141d565b915081905092915050565b600061172782846114c0565b915081905092915050565b600061010082019050611748600083018b61137b565b611755602083018a6116f5565b81810360408301526117678189611487565b9050818103606083015261177b8188611487565b9050818103608083015261178f8187611487565b905061179e60a083018661140e565b81810360c08301526117b08185611487565b905081810360e08301526117c48184611487565b90509998505050505050505050565b600060208201905081810360008301526117ed818461138a565b905092915050565b600060208201905061180a600083018461140e565b92915050565b6000602082019050818103600083015261182a818461154e565b905092915050565b600060208201905061184760008301846116f5565b92915050565b6000604051905081810181811067ffffffffffffffff8211171561187057600080fd5b8060405250919050565b600067ffffffffffffffff82111561189157600080fd5b601f19601f8301169050602081019050919050565b6000819050602082019050919050565b60008190508160005260206000209050919050565b600081519050919050565b600081519050919050565b600081519050919050565b6000602082019050919050565b600082825260208201905092915050565b600082825260208201905092915050565b600082825260208201905092915050565b600081905092915050565b600061194282611955565b9050919050565b60008115159050919050565b600073ffffffffffffffffffffffffffffffffffffffff82169050919050565b6000819050919050565b82818337600083830152505050565b60005b838110156119ac578082015181840152602081019050611991565b838111156119bb576000848401525b50505050565b6000601f19601f8301169050919050565b6119db81611975565b81146119e657600080fd5b5056fea365627a7a723158204dddab6b9a9964409802cf47c79c3d1cd498e8a750b09a3210f7555332aa25ca6c6578706572696d656e74616cf564736f6c63430005100040",
  "source": "pragma solidity ^0.5.0;\npragma experimental ABIEncoderV2;\n\n\ncontract VoterContract {\n    struct Voter {\n        address voterAddress;\n        uint user_id;\n        string first_name;\n        string last_name;\n        string ssn;\n        bool voted;\n        string username;\n        string password;\n    }\n    \n    // Store Voters\n    // Fetch Voters\n    mapping(uint  => Voter) public voters;\n    // Store Voters Count\n    uint public count;\n    \n    constructor() public {\n        \n    }\n    \n    function register(string memory _first_name,string memory _last_name,string memory _ssn,string memory _username,string memory _password) public {\n        Voter memory voter = Voter(msg.sender,count,_first_name,_last_name,_ssn,false,_username,_password);\n        voters[count] = voter;\n        count++;\n    }\n    \n    function userVoted(uint  _user_id) public {\n        Voter storage voter = voters[_user_id];\n        voter.voted = true;\n    }\n    \n    function getVoterInformation(uint _user_id) public view returns (Voter memory) {\n        return voters[_user_id];\n    }\n    \n    function getVoterCount() public view returns (uint){\n        return count;\n    }\n    \n    function  getVoterList () public view returns (Voter[] memory){\n        Voter[] memory list = new Voter[](count);\n        for(uint i =0 ; i < count; i++){\n            list[i] = voters[i];\n        }\n        return list;\n    }\n    \n    \n    function login(string memory _username,string memory _password) public view returns (bool){\n        for(uint i =0; i < count; i++){\n            Voter storage voter = voters[i];\n            \n            if (keccak256(abi.encodePacked(voter.username)) == keccak256(abi.encodePacked(_username))) {\n                if (keccak256(abi.encodePacked(voter.password)) == keccak256(abi.encodePacked(_password))) {\n                    return true;\n                }\n            }\n        }\n        return false;\n    }\n    \n    \n}",
  "sourcePath": "/Users/sachinsharma/final_voting/contracts/VoterContract.sol",
  "compiler": {
    "name": "solc",
    "version": "0.5.16+commit.9c3226ce.Emscripten.clang"
  },
  "schemaVersion": "3.0.23",
  "updatedAt": "2020-03-29T03:34:41.044Z",
  "networkType": "ethereum",
  "devdoc": {
    "methods": {}
  },
  "userdoc": {
    "methods": {}
  }
}