{
  "contractName": "VoterRegistration",
  "abi": [
    {
      "inputs": [],
      "payable": false,
      "stateMutability": "nonpayable",
      "type": "constructor"
    },
    {
      "constant": true,
      "inputs": [],
      "name": "count",
      "outputs": [
        {
          "internalType": "uint256",
          "name": "",
          "type": "uint256"
        }
      ],
      "payable": false,
      "stateMutability": "view",
      "type": "function"
    },
    {
      "constant": true,
      "inputs": [
        {
          "internalType": "uint256",
          "name": "",
          "type": "uint256"
        }
      ],
      "name": "voters",
      "outputs": [
        {
          "internalType": "address",
          "name": "voterAddress",
          "type": "address"
        },
        {
          "internalType": "uint256",
          "name": "user_id",
          "type": "uint256"
        },
        {
          "internalType": "string",
          "name": "first_name",
          "type": "string"
        },
        {
          "internalType": "string",
          "name": "last_name",
          "type": "string"
        },
        {
          "internalType": "string",
          "name": "ssn",
          "type": "string"
        },
        {
          "internalType": "bool",
          "name": "voted",
          "type": "bool"
        },
        {
          "internalType": "string",
          "name": "username",
          "type": "string"
        },
        {
          "internalType": "string",
          "name": "password",
          "type": "string"
        }
      ],
      "payable": false,
      "stateMutability": "view",
      "type": "function"
    },
    {
      "constant": false,
      "inputs": [
        {
          "internalType": "string",
          "name": "_first_name",
          "type": "string"
        },
        {
          "internalType": "string",
          "name": "_last_name",
          "type": "string"
        },
        {
          "internalType": "string",
          "name": "_ssn",
          "type": "string"
        },
        {
          "internalType": "string",
          "name": "_username",
          "type": "string"
        },
        {
          "internalType": "string",
          "name": "_password",
          "type": "string"
        }
      ],
      "name": "voterRegistration",
      "outputs": [],
      "payable": false,
      "stateMutability": "nonpayable",
      "type": "function"
    },
    {
      "constant": false,
      "inputs": [
        {
          "internalType": "uint256",
          "name": "_user_id",
          "type": "uint256"
        }
      ],
      "name": "userVoted",
      "outputs": [],
      "payable": false,
      "stateMutability": "nonpayable",
      "type": "function"
    },
    {
      "constant": true,
      "inputs": [
        {
          "internalType": "uint256",
          "name": "_user_id",
          "type": "uint256"
        }
      ],
      "name": "getVoterInformation",
      "outputs": [
        {
          "components": [
            {
              "internalType": "address",
              "name": "voterAddress",
              "type": "address"
            },
            {
              "internalType": "uint256",
              "name": "user_id",
              "type": "uint256"
            },
            {
              "internalType": "string",
              "name": "first_name",
              "type": "string"
            },
            {
              "internalType": "string",
              "name": "last_name",
              "type": "string"
            },
            {
              "internalType": "string",
              "name": "ssn",
              "type": "string"
            },
            {
              "internalType": "bool",
              "name": "voted",
              "type": "bool"
            },
            {
              "internalType": "string",
              "name": "username",
              "type": "string"
            },
            {
              "internalType": "string",
              "name": "password",
              "type": "string"
            }
          ],
          "internalType": "struct VoterRegistration.Voter",
          "name": "",
          "type": "tuple"
        }
      ],
      "payable": false,
      "stateMutability": "view",
      "type": "function"
    },
    {
      "constant": true,
      "inputs": [
        {
          "internalType": "string",
          "name": "_username",
          "type": "string"
        },
        {
          "internalType": "string",
          "name": "_password",
          "type": "string"
        }
      ],
      "name": "login",
      "outputs": [
        {
          "internalType": "bool",
          "name": "",
          "type": "bool"
        }
      ],
      "payable": false,
      "stateMutability": "view",
      "type": "function"
    }
  ],
  "bytecode": "0x608060405234801561001057600080fd5b50611375806100206000396000f3fe608060405234801561001057600080fd5b50600436106100625760003560e01c806306661abd146100675780630678cfad14610085578063397e0eeb146100a157806358467dbc146100bd578063cd20a353146100ed578063da58c7d91461011d575b600080fd5b61006f610154565b60405161007c91906111b4565b60405180910390f35b61009f600480360361009a9190810190610d39565b61015a565b005b6100bb60048036036100b69190810190610e28565b6102ed565b005b6100d760048036036100d29190810190610ccd565b610324565b6040516100e49190611177565b60405180910390f35b61010760048036036101029190810190610e28565b610423565b6040516101149190611192565b60405180910390f35b61013760048036036101329190810190610e28565b6107f5565b60405161014b9897969594939291906110d6565b60405180910390f35b60015481565b610162610b62565b6040518061010001604052803373ffffffffffffffffffffffffffffffffffffffff168152602001600154815260200187815260200186815260200185815260200160001515815260200184815260200183815250905080600080600154815260200190815260200160002060008201518160000160006101000a81548173ffffffffffffffffffffffffffffffffffffffff021916908373ffffffffffffffffffffffffffffffffffffffff16021790555060208201518160010155604082015181600201908051906020019061023b929190610bbf565b506060820151816003019080519060200190610258929190610bbf565b506080820151816004019080519060200190610275929190610bbf565b5060a08201518160050160006101000a81548160ff02191690831515021790555060c08201518160060190805190602001906102b2929190610bbf565b5060e08201518160070190805190602001906102cf929190610bbf565b50905050600160008154809291906001019190505550505050505050565b6000806000838152602001908152602001600020905060018160050160006101000a81548160ff0219169083151502179055505050565b60008060008090505b60015481101561041857600080600083815260200190815260200160002090508560405160200161035e91906110a8565b604051602081830303815290604052805190602001208160060160405160200161038891906110bf565b60405160208183030381529060405280519060200120141561040557846040516020016103b591906110a8565b60405160208183030381529060405280519060200120816007016040516020016103df91906110bf565b60405160208183030381529060405280519060200120141561040057600192505b61040a565b600092505b50808060010191505061032d565b508091505092915050565b61042b610b62565b600080838152602001908152602001600020604051806101000160405290816000820160009054906101000a900473ffffffffffffffffffffffffffffffffffffffff1673ffffffffffffffffffffffffffffffffffffffff1673ffffffffffffffffffffffffffffffffffffffff16815260200160018201548152602001600282018054600181600116156101000203166002900480601f0160208091040260200160405190810160405280929190818152602001828054600181600116156101000203166002900480156105425780601f1061051757610100808354040283529160200191610542565b820191906000526020600020905b81548152906001019060200180831161052557829003601f168201915b50505050508152602001600382018054600181600116156101000203166002900480601f0160208091040260200160405190810160405280929190818152602001828054600181600116156101000203166002900480156105e45780601f106105b9576101008083540402835291602001916105e4565b820191906000526020600020905b8154815290600101906020018083116105c757829003601f168201915b50505050508152602001600482018054600181600116156101000203166002900480601f0160208091040260200160405190810160405280929190818152602001828054600181600116156101000203166002900480156106865780601f1061065b57610100808354040283529160200191610686565b820191906000526020600020905b81548152906001019060200180831161066957829003601f168201915b505050505081526020016005820160009054906101000a900460ff16151515158152602001600682018054600181600116156101000203166002900480601f0160208091040260200160405190810160405280929190818152602001828054600181600116156101000203166002900480156107435780601f1061071857610100808354040283529160200191610743565b820191906000526020600020905b81548152906001019060200180831161072657829003601f168201915b50505050508152602001600782018054600181600116156101000203166002900480601f0160208091040260200160405190810160405280929190818152602001828054600181600116156101000203166002900480156107e55780601f106107ba576101008083540402835291602001916107e5565b820191906000526020600020905b8154815290600101906020018083116107c857829003601f168201915b5050505050815250509050919050565b60006020528060005260406000206000915090508060000160009054906101000a900473ffffffffffffffffffffffffffffffffffffffff1690806001015490806002018054600181600116156101000203166002900480601f0160208091040260200160405190810160405280929190818152602001828054600181600116156101000203166002900480156108cd5780601f106108a2576101008083540402835291602001916108cd565b820191906000526020600020905b8154815290600101906020018083116108b057829003601f168201915b505050505090806003018054600181600116156101000203166002900480601f01602080910402602001604051908101604052809291908181526020018280546001816001161561010002031660029004801561096b5780601f106109405761010080835404028352916020019161096b565b820191906000526020600020905b81548152906001019060200180831161094e57829003601f168201915b505050505090806004018054600181600116156101000203166002900480601f016020809104026020016040519081016040528092919081815260200182805460018160011615610100020316600290048015610a095780601f106109de57610100808354040283529160200191610a09565b820191906000526020600020905b8154815290600101906020018083116109ec57829003601f168201915b5050505050908060050160009054906101000a900460ff1690806006018054600181600116156101000203166002900480601f016020809104026020016040519081016040528092919081815260200182805460018160011615610100020316600290048015610aba5780601f10610a8f57610100808354040283529160200191610aba565b820191906000526020600020905b815481529060010190602001808311610a9d57829003601f168201915b505050505090806007018054600181600116156101000203166002900480601f016020809104026020016040519081016040528092919081815260200182805460018160011615610100020316600290048015610b585780601f10610b2d57610100808354040283529160200191610b58565b820191906000526020600020905b815481529060010190602001808311610b3b57829003601f168201915b5050505050905088565b604051806101000160405280600073ffffffffffffffffffffffffffffffffffffffff1681526020016000815260200160608152602001606081526020016060815260200160001515815260200160608152602001606081525090565b828054600181600116156101000203166002900490600052602060002090601f016020900481019282601f10610c0057805160ff1916838001178555610c2e565b82800160010185558215610c2e579182015b82811115610c2d578251825591602001919060010190610c12565b5b509050610c3b9190610c3f565b5090565b610c6191905b80821115610c5d576000816000905550600101610c45565b5090565b90565b600082601f830112610c7557600080fd5b8135610c88610c83826111fc565b6111cf565b91508082526020830160208301858383011115610ca457600080fd5b610caf8382846112c8565b50505092915050565b600081359050610cc78161131b565b92915050565b60008060408385031215610ce057600080fd5b600083013567ffffffffffffffff811115610cfa57600080fd5b610d0685828601610c64565b925050602083013567ffffffffffffffff811115610d2357600080fd5b610d2f85828601610c64565b9150509250929050565b600080600080600060a08688031215610d5157600080fd5b600086013567ffffffffffffffff811115610d6b57600080fd5b610d7788828901610c64565b955050602086013567ffffffffffffffff811115610d9457600080fd5b610da088828901610c64565b945050604086013567ffffffffffffffff811115610dbd57600080fd5b610dc988828901610c64565b935050606086013567ffffffffffffffff811115610de657600080fd5b610df288828901610c64565b925050608086013567ffffffffffffffff811115610e0f57600080fd5b610e1b88828901610c64565b9150509295509295909350565b600060208284031215610e3a57600080fd5b6000610e4884828501610cb8565b91505092915050565b610e5a81611280565b82525050565b610e6981611280565b82525050565b610e7881611292565b82525050565b610e8781611292565b82525050565b6000610e9882611248565b610ea28185611275565b9350610eb28185602086016112d7565b80840191505092915050565b6000610ec98261123d565b610ed38185611253565b9350610ee38185602086016112d7565b610eec8161130a565b840191505092915050565b6000610f028261123d565b610f0c8185611264565b9350610f1c8185602086016112d7565b610f258161130a565b840191505092915050565b600081546001811660008114610f4d5760018114610f7257610fb6565b607f6002830416610f5e8187611275565b955060ff1983168652808601935050610fb6565b60028204610f808187611275565b9550610f8b85611228565b60005b82811015610fad57815481890152600182019150602081019050610f8e565b82880195505050505b505092915050565b600061010083016000830151610fd76000860182610e51565b506020830151610fea602086018261108a565b50604083015184820360408601526110028282610ebe565b9150506060830151848203606086015261101c8282610ebe565b915050608083015184820360808601526110368282610ebe565b91505060a083015161104b60a0860182610e6f565b5060c083015184820360c08601526110638282610ebe565b91505060e083015184820360e086015261107d8282610ebe565b9150508091505092915050565b611093816112be565b82525050565b6110a2816112be565b82525050565b60006110b48284610e8d565b915081905092915050565b60006110cb8284610f30565b915081905092915050565b6000610100820190506110ec600083018b610e60565b6110f9602083018a611099565b818103604083015261110b8189610ef7565b9050818103606083015261111f8188610ef7565b905081810360808301526111338187610ef7565b905061114260a0830186610e7e565b81810360c08301526111548185610ef7565b905081810360e08301526111688184610ef7565b90509998505050505050505050565b600060208201905061118c6000830184610e7e565b92915050565b600060208201905081810360008301526111ac8184610fbe565b905092915050565b60006020820190506111c96000830184611099565b92915050565b6000604051905081810181811067ffffffffffffffff821117156111f257600080fd5b8060405250919050565b600067ffffffffffffffff82111561121357600080fd5b601f19601f8301169050602081019050919050565b60008190508160005260206000209050919050565b600081519050919050565b600081519050919050565b600082825260208201905092915050565b600082825260208201905092915050565b600081905092915050565b600061128b8261129e565b9050919050565b60008115159050919050565b600073ffffffffffffffffffffffffffffffffffffffff82169050919050565b6000819050919050565b82818337600083830152505050565b60005b838110156112f55780820151818401526020810190506112da565b83811115611304576000848401525b50505050565b6000601f19601f8301169050919050565b611324816112be565b811461132f57600080fd5b5056fea365627a7a723158204dd59e374d1b1f96fa823a5879317414d63997c50bcc7e9b7466adb53bea8e4b6c6578706572696d656e74616cf564736f6c63430005100040",
  "source": "pragma solidity ^0.5.0;\r\npragma experimental ABIEncoderV2;\r\n\r\n\r\ncontract VoterRegistration {\r\n    struct Voter {\r\n        address voterAddress;\r\n        uint user_id;\r\n        string first_name;\r\n        string last_name;\r\n        string ssn;\r\n        bool voted;\r\n        string username;\r\n        string password;\r\n    }\r\n    \r\n    // Store Candidates\r\n    // Fetch Candidate\r\n    mapping(uint  => Voter) public voters;\r\n    // Store Candidates Count\r\n    uint public count;\r\n    \r\n    constructor() public {\r\n        \r\n    }\r\n    \r\n    function voterRegistration(string memory _first_name,string memory _last_name,string memory _ssn,string memory _username,string memory _password) public{\r\n        Voter memory voter = Voter(msg.sender,count,_first_name,_last_name,_ssn,false,_username,_password);\r\n        voters[count] = voter;\r\n        count++;\r\n    }\r\n    \r\n    function userVoted(uint  _user_id) public {\r\n        Voter storage voter = voters[_user_id];\r\n        voter.voted = true;\r\n    }\r\n    \r\n    function getVoterInformation(uint _user_id) public view returns (Voter memory) {\r\n        return voters[_user_id];\r\n    }\r\n    \r\n    \r\n    function login(string memory _username,string memory _password) public view returns (bool){\r\n        bool isValidVoter;\r\n        for(uint i =0; i < count; i++){\r\n            Voter storage voter = voters[i];\r\n            \r\n            if (keccak256(abi.encodePacked(voter.username)) == keccak256(abi.encodePacked(_username))) {\r\n                if (keccak256(abi.encodePacked(voter.password)) == keccak256(abi.encodePacked(_password))) {\r\n                    isValidVoter = true;\r\n                }\r\n            }\r\n            else {\r\n                isValidVoter = false;\r\n            }\r\n        }\r\n        return isValidVoter;\r\n    }\r\n    \r\n    \r\n}",
  "sourcePath": "E:\\final_voting_app\\contracts\\VoterRegistration.sol",
  "compiler": {
    "name": "solc",
    "version": "0.5.16+commit.9c3226ce.Emscripten.clang"
  },
  "schemaVersion": "3.0.23",
  "updatedAt": "2020-03-07T05:14:23.708Z",
  "networkType": "ethereum",
  "devdoc": {
    "methods": {}
  },
  "userdoc": {
    "methods": {}
  }
}